{
  "_format": "hh-sol-artifact-1",
  "contractName": "LocalBusinessNFT",
  "sourceName": "contracts/LocalBusinessNFT.sol",
  "abi": [
    {
      "inputs": [],
      "stateMutability": "nonpayable",
      "type": "constructor"
    },
    {
      "anonymous": false,
      "inputs": [
        {
          "indexed": true,
          "internalType": "address",
          "name": "owner",
          "type": "address"
        },
        {
          "indexed": true,
          "internalType": "address",
          "name": "approved",
          "type": "address"
        },
        {
          "indexed": true,
          "internalType": "uint256",
          "name": "tokenId",
          "type": "uint256"
        }
      ],
      "name": "Approval",
      "type": "event"
    },
    {
      "anonymous": false,
      "inputs": [
        {
          "indexed": true,
          "internalType": "address",
          "name": "owner",
          "type": "address"
        },
        {
          "indexed": true,
          "internalType": "address",
          "name": "operator",
          "type": "address"
        },
        {
          "indexed": false,
          "internalType": "bool",
          "name": "approved",
          "type": "bool"
        }
      ],
      "name": "ApprovalForAll",
      "type": "event"
    },
    {
      "anonymous": false,
      "inputs": [
        {
          "indexed": false,
          "internalType": "uint256",
          "name": "_fromTokenId",
          "type": "uint256"
        },
        {
          "indexed": false,
          "internalType": "uint256",
          "name": "_toTokenId",
          "type": "uint256"
        }
      ],
      "name": "BatchMetadataUpdate",
      "type": "event"
    },
    {
      "anonymous": false,
      "inputs": [
        {
          "indexed": false,
          "internalType": "uint256",
          "name": "_tokenId",
          "type": "uint256"
        }
      ],
      "name": "MetadataUpdate",
      "type": "event"
    },
    {
      "anonymous": false,
      "inputs": [
        {
          "indexed": false,
          "internalType": "address",
          "name": "owner",
          "type": "address"
        },
        {
          "indexed": false,
          "internalType": "uint256",
          "name": "tokenId",
          "type": "uint256"
        },
        {
          "indexed": false,
          "internalType": "string",
          "name": "description",
          "type": "string"
        },
        {
          "indexed": false,
          "internalType": "string",
          "name": "business",
          "type": "string"
        }
      ],
      "name": "NFTMinted",
      "type": "event"
    },
    {
      "anonymous": false,
      "inputs": [
        {
          "indexed": false,
          "internalType": "address",
          "name": "owner",
          "type": "address"
        },
        {
          "indexed": false,
          "internalType": "uint256",
          "name": "tokenId",
          "type": "uint256"
        }
      ],
      "name": "NFTRedeemed",
      "type": "event"
    },
    {
      "anonymous": false,
      "inputs": [
        {
          "indexed": true,
          "internalType": "address",
          "name": "previousOwner",
          "type": "address"
        },
        {
          "indexed": true,
          "internalType": "address",
          "name": "newOwner",
          "type": "address"
        }
      ],
      "name": "OwnershipTransferred",
      "type": "event"
    },
    {
      "anonymous": false,
      "inputs": [
        {
          "indexed": true,
          "internalType": "address",
          "name": "from",
          "type": "address"
        },
        {
          "indexed": true,
          "internalType": "address",
          "name": "to",
          "type": "address"
        },
        {
          "indexed": true,
          "internalType": "uint256",
          "name": "tokenId",
          "type": "uint256"
        }
      ],
      "name": "Transfer",
      "type": "event"
    },
    {
      "inputs": [],
      "name": "_tokenIds",
      "outputs": [
        {
          "internalType": "uint256",
          "name": "_value",
          "type": "uint256"
        }
      ],
      "stateMutability": "view",
      "type": "function"
    },
    {
      "inputs": [],
      "name": "_tokenIdsForBusiness",
      "outputs": [
        {
          "internalType": "uint256",
          "name": "_value",
          "type": "uint256"
        }
      ],
      "stateMutability": "view",
      "type": "function"
    },
    {
      "inputs": [],
      "name": "_tokenIdsForUsers",
      "outputs": [
        {
          "internalType": "uint256",
          "name": "_value",
          "type": "uint256"
        }
      ],
      "stateMutability": "view",
      "type": "function"
    },
    {
      "inputs": [
        {
          "internalType": "address",
          "name": "to",
          "type": "address"
        },
        {
          "internalType": "uint256",
          "name": "tokenId",
          "type": "uint256"
        }
      ],
      "name": "approve",
      "outputs": [],
      "stateMutability": "nonpayable",
      "type": "function"
    },
    {
      "inputs": [
        {
          "internalType": "address",
          "name": "owner",
          "type": "address"
        }
      ],
      "name": "balanceOf",
      "outputs": [
        {
          "internalType": "uint256",
          "name": "",
          "type": "uint256"
        }
      ],
      "stateMutability": "view",
      "type": "function"
    },
    {
      "inputs": [
        {
          "internalType": "uint256",
          "name": "",
          "type": "uint256"
        }
      ],
      "name": "businessName",
      "outputs": [
        {
          "internalType": "string",
          "name": "",
          "type": "string"
        }
      ],
      "stateMutability": "view",
      "type": "function"
    },
    {
      "inputs": [
        {
          "internalType": "uint256",
          "name": "tokenId",
          "type": "uint256"
        }
      ],
      "name": "getApproved",
      "outputs": [
        {
          "internalType": "address",
          "name": "",
          "type": "address"
        }
      ],
      "stateMutability": "view",
      "type": "function"
    },
    {
      "inputs": [
        {
          "internalType": "address",
          "name": "owner",
          "type": "address"
        },
        {
          "internalType": "address",
          "name": "operator",
          "type": "address"
        }
      ],
      "name": "isApprovedForAll",
      "outputs": [
        {
          "internalType": "bool",
          "name": "",
          "type": "bool"
        }
      ],
      "stateMutability": "view",
      "type": "function"
    },
    {
      "inputs": [
        {
          "internalType": "address",
          "name": "to",
          "type": "address"
        },
        {
          "internalType": "string",
          "name": "_description",
          "type": "string"
        },
        {
          "internalType": "string",
          "name": "_business",
          "type": "string"
        },
        {
          "internalType": "string",
          "name": "tokenURI",
          "type": "string"
        }
      ],
      "name": "mintNFTByOwner",
      "outputs": [
        {
          "internalType": "uint256",
          "name": "",
          "type": "uint256"
        }
      ],
      "stateMutability": "nonpayable",
      "type": "function"
    },
    {
      "inputs": [
        {
          "internalType": "string",
          "name": "_description",
          "type": "string"
        },
        {
          "internalType": "string",
          "name": "_business",
          "type": "string"
        },
        {
          "internalType": "string",
          "name": "tokenURI",
          "type": "string"
        }
      ],
      "name": "mintNFTByUser",
      "outputs": [
        {
          "internalType": "uint256",
          "name": "",
          "type": "uint256"
        }
      ],
      "stateMutability": "nonpayable",
      "type": "function"
    },
    {
      "inputs": [],
      "name": "name",
      "outputs": [
        {
          "internalType": "string",
          "name": "",
          "type": "string"
        }
      ],
      "stateMutability": "view",
      "type": "function"
    },
    {
      "inputs": [],
      "name": "owner",
      "outputs": [
        {
          "internalType": "address",
          "name": "",
          "type": "address"
        }
      ],
      "stateMutability": "view",
      "type": "function"
    },
    {
      "inputs": [
        {
          "internalType": "uint256",
          "name": "tokenId",
          "type": "uint256"
        }
      ],
      "name": "ownerOf",
      "outputs": [
        {
          "internalType": "address",
          "name": "",
          "type": "address"
        }
      ],
      "stateMutability": "view",
      "type": "function"
    },
    {
      "inputs": [
        {
          "internalType": "uint256",
          "name": "tokenId",
          "type": "uint256"
        }
      ],
      "name": "redeemNFT",
      "outputs": [],
      "stateMutability": "nonpayable",
      "type": "function"
    },
    {
      "inputs": [],
      "name": "renounceOwnership",
      "outputs": [],
      "stateMutability": "nonpayable",
      "type": "function"
    },
    {
      "inputs": [
        {
          "internalType": "address",
          "name": "from",
          "type": "address"
        },
        {
          "internalType": "address",
          "name": "to",
          "type": "address"
        },
        {
          "internalType": "uint256",
          "name": "tokenId",
          "type": "uint256"
        }
      ],
      "name": "safeTransferFrom",
      "outputs": [],
      "stateMutability": "nonpayable",
      "type": "function"
    },
    {
      "inputs": [
        {
          "internalType": "address",
          "name": "from",
          "type": "address"
        },
        {
          "internalType": "address",
          "name": "to",
          "type": "address"
        },
        {
          "internalType": "uint256",
          "name": "tokenId",
          "type": "uint256"
        },
        {
          "internalType": "bytes",
          "name": "data",
          "type": "bytes"
        }
      ],
      "name": "safeTransferFrom",
      "outputs": [],
      "stateMutability": "nonpayable",
      "type": "function"
    },
    {
      "inputs": [
        {
          "internalType": "uint256",
          "name": "",
          "type": "uint256"
        }
      ],
      "name": "serviceDescription",
      "outputs": [
        {
          "internalType": "string",
          "name": "",
          "type": "string"
        }
      ],
      "stateMutability": "view",
      "type": "function"
    },
    {
      "inputs": [
        {
          "internalType": "address",
          "name": "operator",
          "type": "address"
        },
        {
          "internalType": "bool",
          "name": "approved",
          "type": "bool"
        }
      ],
      "name": "setApprovalForAll",
      "outputs": [],
      "stateMutability": "nonpayable",
      "type": "function"
    },
    {
      "inputs": [
        {
          "internalType": "bytes4",
          "name": "interfaceId",
          "type": "bytes4"
        }
      ],
      "name": "supportsInterface",
      "outputs": [
        {
          "internalType": "bool",
          "name": "",
          "type": "bool"
        }
      ],
      "stateMutability": "view",
      "type": "function"
    },
    {
      "inputs": [],
      "name": "symbol",
      "outputs": [
        {
          "internalType": "string",
          "name": "",
          "type": "string"
        }
      ],
      "stateMutability": "view",
      "type": "function"
    },
    {
      "inputs": [
        {
          "internalType": "uint256",
          "name": "tokenId",
          "type": "uint256"
        }
      ],
      "name": "tokenURI",
      "outputs": [
        {
          "internalType": "string",
          "name": "",
          "type": "string"
        }
      ],
      "stateMutability": "view",
      "type": "function"
    },
    {
      "inputs": [
        {
          "internalType": "string",
          "name": "",
          "type": "string"
        },
        {
          "internalType": "uint256",
          "name": "",
          "type": "uint256"
        }
      ],
      "name": "tokensOfBusiness",
      "outputs": [
        {
          "internalType": "uint256",
          "name": "",
          "type": "uint256"
        }
      ],
      "stateMutability": "view",
      "type": "function"
    },
    {
      "inputs": [
        {
          "internalType": "address",
          "name": "",
          "type": "address"
        },
        {
          "internalType": "uint256",
          "name": "",
          "type": "uint256"
        }
      ],
      "name": "tokensOfUser",
      "outputs": [
        {
          "internalType": "uint256",
          "name": "",
          "type": "uint256"
        }
      ],
      "stateMutability": "view",
      "type": "function"
    },
    {
      "inputs": [
        {
          "internalType": "address",
          "name": "from",
          "type": "address"
        },
        {
          "internalType": "address",
          "name": "to",
          "type": "address"
        },
        {
          "internalType": "uint256",
          "name": "tokenId",
          "type": "uint256"
        }
      ],
      "name": "transferFrom",
      "outputs": [],
      "stateMutability": "nonpayable",
      "type": "function"
    },
    {
      "inputs": [
        {
          "internalType": "address",
          "name": "newOwner",
          "type": "address"
        }
      ],
      "name": "transferOwnership",
      "outputs": [],
      "stateMutability": "nonpayable",
      "type": "function"
    }
  ],
  "bytecode": "0x60806040523480156200001157600080fd5b506040518060400160405280601081526020017f4c6f63616c427573696e6573734e4654000000000000000000000000000000008152506040518060400160405280600581526020017f4c424e465400000000000000000000000000000000000000000000000000000081525081600090816200008f919062000412565b508060019081620000a1919062000412565b505050620000c4620000b8620000ca60201b60201c565b620000d260201b60201c565b620004f9565b600033905090565b6000600760009054906101000a900473ffffffffffffffffffffffffffffffffffffffff16905081600760006101000a81548173ffffffffffffffffffffffffffffffffffffffff021916908373ffffffffffffffffffffffffffffffffffffffff1602179055508173ffffffffffffffffffffffffffffffffffffffff168173ffffffffffffffffffffffffffffffffffffffff167f8be0079c531659141344cd1fd0a4f28419497f9722a3daafe3b4186f6b6457e060405160405180910390a35050565b600081519050919050565b7f4e487b7100000000000000000000000000000000000000000000000000000000600052604160045260246000fd5b7f4e487b7100000000000000000000000000000000000000000000000000000000600052602260045260246000fd5b600060028204905060018216806200021a57607f821691505b60208210810362000230576200022f620001d2565b5b50919050565b60008190508160005260206000209050919050565b60006020601f8301049050919050565b600082821b905092915050565b6000600883026200029a7fffffffffffffffffffffffffffffffffffffffffffffffffffffffffffffffff826200025b565b620002a686836200025b565b95508019841693508086168417925050509392505050565b6000819050919050565b6000819050919050565b6000620002f3620002ed620002e784620002be565b620002c8565b620002be565b9050919050565b6000819050919050565b6200030f83620002d2565b620003276200031e82620002fa565b84845462000268565b825550505050565b600090565b6200033e6200032f565b6200034b81848462000304565b505050565b5b8181101562000373576200036760008262000334565b60018101905062000351565b5050565b601f821115620003c2576200038c8162000236565b62000397846200024b565b81016020851015620003a7578190505b620003bf620003b6856200024b565b83018262000350565b50505b505050565b600082821c905092915050565b6000620003e760001984600802620003c7565b1980831691505092915050565b6000620004028383620003d4565b9150826002028217905092915050565b6200041d8262000198565b67ffffffffffffffff811115620004395762000438620001a3565b5b62000445825462000201565b6200045282828562000377565b600060209050601f8311600181146200048a576000841562000475578287015190505b620004818582620003f4565b865550620004f1565b601f1984166200049a8662000236565b60005b82811015620004c4578489015182556001820191506020850194506020810190506200049d565b86831015620004e45784890151620004e0601f891682620003d4565b8355505b6001600288020188555050505b505050505050565b613c2380620005096000396000f3fe608060405234801561001057600080fd5b506004361061018e5760003560e01c806370a08231116100de578063aa46a40011610097578063c87b56dd11610071578063c87b56dd146104bb578063e985e9c5146104eb578063eb84bfb31461051b578063f2fde38b146105395761018e565b8063aa46a40014610451578063b88d4fde1461046f578063b97d10951461048b5761018e565b806370a082311461038f578063715018a6146103bf5780638da5cb5b146103c957806395d89b41146103e7578063a1a1526e14610405578063a22cb465146104355761018e565b806323b872dd1161014b57806358dc2cdb1161012557806358dc2cdb146102e3578063609e203e146102ff5780636352211e1461032f57806366847be51461035f5761018e565b806323b872dd1461027b57806342842e0e146102975780634c034cb8146102b35761018e565b806301ffc9a71461019357806306fdde03146101c3578063081812fc146101e1578063095ea7b3146102115780631fb8186c1461022d578063220ffef51461025d575b600080fd5b6101ad60048036038101906101a89190612618565b610555565b6040516101ba9190612660565b60405180910390f35b6101cb6105b6565b6040516101d8919061270b565b60405180910390f35b6101fb60048036038101906101f69190612763565b610648565b60405161020891906127d1565b60405180910390f35b61022b60048036038101906102269190612818565b61068e565b005b6102476004803603810190610242919061298d565b6107a5565b6040516102549190612a57565b60405180910390f35b6102656107e9565b6040516102729190612a57565b60405180910390f35b61029560048036038101906102909190612a72565b6107f5565b005b6102b160048036038101906102ac9190612a72565b610855565b005b6102cd60048036038101906102c89190612ac5565b610875565b6040516102da9190612a57565b60405180910390f35b6102fd60048036038101906102f89190612763565b6108bc565b005b61031960048036038101906103149190612763565b610b45565b604051610326919061270b565b60405180910390f35b61034960048036038101906103449190612763565b610be5565b60405161035691906127d1565b60405180910390f35b61037960048036038101906103749190612818565b610c6b565b6040516103869190612a57565b60405180910390f35b6103a960048036038101906103a49190612b21565b610c9c565b6040516103b69190612a57565b60405180910390f35b6103c7610d53565b005b6103d1610d67565b6040516103de91906127d1565b60405180910390f35b6103ef610d91565b6040516103fc919061270b565b60405180910390f35b61041f600480360381019061041a9190612763565b610e23565b60405161042c919061270b565b60405180910390f35b61044f600480360381019061044a9190612b7a565b610ec3565b005b610459610ed9565b6040516104669190612a57565b60405180910390f35b61048960048036038101906104849190612c5b565b610ee5565b005b6104a560048036038101906104a09190612cde565b610f47565b6040516104b29190612a57565b60405180910390f35b6104d560048036038101906104d09190612763565b610fe8565b6040516104e2919061270b565b60405180910390f35b61050560048036038101906105009190612d85565b6110fa565b6040516105129190612660565b60405180910390f35b61052361118e565b6040516105309190612a57565b60405180910390f35b610553600480360381019061054e9190612b21565b61119a565b005b6000634906490660e01b7bffffffffffffffffffffffffffffffffffffffffffffffffffffffff1916827bffffffffffffffffffffffffffffffffffffffffffffffffffffffff191614806105af57506105ae8261121d565b5b9050919050565b6060600080546105c590612df4565b80601f01602080910402602001604051908101604052809291908181526020018280546105f190612df4565b801561063e5780601f106106135761010080835404028352916020019161063e565b820191906000526020600020905b81548152906001019060200180831161062157829003601f168201915b5050505050905090565b6000610653826112ff565b6004600083815260200190815260200160002060009054906101000a900473ffffffffffffffffffffffffffffffffffffffff169050919050565b600061069982610be5565b90508073ffffffffffffffffffffffffffffffffffffffff168373ffffffffffffffffffffffffffffffffffffffff1603610709576040517f08c379a000000000000000000000000000000000000000000000000000000000815260040161070090612e97565b60405180910390fd5b8073ffffffffffffffffffffffffffffffffffffffff1661072861134a565b73ffffffffffffffffffffffffffffffffffffffff16148061075757506107568161075161134a565b6110fa565b5b610796576040517f08c379a000000000000000000000000000000000000000000000000000000000815260040161078d90612f29565b60405180910390fd5b6107a08383611352565b505050565b60006107af61140b565b6107b96009611489565b6107c36008611489565b60006107cf600861149f565b90506107de86828787876114ad565b915050949350505050565b600a8060000154905081565b61080661080061134a565b82611593565b610845576040517f08c379a000000000000000000000000000000000000000000000000000000000815260040161083c90612fbb565b60405180910390fd5b610850838383611628565b505050565b61087083838360405180602001604052806000815250610ee5565b505050565b600d8280516020810182018051848252602083016020850120818352809550505050505081815481106108a757600080fd5b90600052602060002001600091509150505481565b6108c581611921565b610904576040517f08c379a00000000000000000000000000000000000000000000000000000000081526004016108fb90613027565b60405180910390fd5b3373ffffffffffffffffffffffffffffffffffffffff1661092482610be5565b73ffffffffffffffffffffffffffffffffffffffff161461097a576040517f08c379a0000000000000000000000000000000000000000000000000000000008152600401610971906130b9565b60405180910390fd5b6000600c6000838152602001908152602001600020805461099a90612df4565b80601f01602080910402602001604051908101604052809291908181526020018280546109c690612df4565b8015610a135780601f106109e857610100808354040283529160200191610a13565b820191906000526020600020905b8154815290600101906020018083116109f657829003601f168201915b505050505090506000600d82604051610a2c9190613115565b9081526020016040518091039020905060005b8180549050811015610afd5783828281548110610a5f57610a5e61312c565b5b906000526020600020015403610aea578160018380549050610a81919061318a565b81548110610a9257610a9161312c565b5b9060005260206000200154828281548110610ab057610aaf61312c565b5b906000526020600020018190555081805480610acf57610ace6131be565b5b60019003818190600052602060002001600090559055610afd565b8080610af5906131ed565b915050610a3f565b50610b0783611962565b7f14c9b4d4f4cc58cdc10083ad4d08288a39df874bbf3e4e0846f3fd1352d48c873384604051610b38929190613235565b60405180910390a1505050565b600b6020528060005260406000206000915090508054610b6490612df4565b80601f0160208091040260200160405190810160405280929190818152602001828054610b9090612df4565b8015610bdd5780601f10610bb257610100808354040283529160200191610bdd565b820191906000526020600020905b815481529060010190602001808311610bc057829003601f168201915b505050505081565b600080610bf1836119b5565b9050600073ffffffffffffffffffffffffffffffffffffffff168173ffffffffffffffffffffffffffffffffffffffff1603610c62576040517f08c379a0000000000000000000000000000000000000000000000000000000008152600401610c59906132aa565b60405180910390fd5b80915050919050565b600e6020528160005260406000208181548110610c8757600080fd5b90600052602060002001600091509150505481565b60008073ffffffffffffffffffffffffffffffffffffffff168273ffffffffffffffffffffffffffffffffffffffff1603610d0c576040517f08c379a0000000000000000000000000000000000000000000000000000000008152600401610d039061333c565b60405180910390fd5b600360008373ffffffffffffffffffffffffffffffffffffffff1673ffffffffffffffffffffffffffffffffffffffff168152602001908152602001600020549050919050565b610d5b61140b565b610d6560006119f2565b565b6000600760009054906101000a900473ffffffffffffffffffffffffffffffffffffffff16905090565b606060018054610da090612df4565b80601f0160208091040260200160405190810160405280929190818152602001828054610dcc90612df4565b8015610e195780601f10610dee57610100808354040283529160200191610e19565b820191906000526020600020905b815481529060010190602001808311610dfc57829003601f168201915b5050505050905090565b600c6020528060005260406000206000915090508054610e4290612df4565b80601f0160208091040260200160405190810160405280929190818152602001828054610e6e90612df4565b8015610ebb5780601f10610e9057610100808354040283529160200191610ebb565b820191906000526020600020905b815481529060010190602001808311610e9e57829003601f168201915b505050505081565b610ed5610ece61134a565b8383611ab8565b5050565b60088060000154905081565b610ef6610ef061134a565b83611593565b610f35576040517f08c379a0000000000000000000000000000000000000000000000000000000008152600401610f2c90612fbb565b60405180910390fd5b610f4184848484611c24565b50505050565b6000610f53600a611489565b610f5d6008611489565b6000610f69600861149f565b9050600e60003373ffffffffffffffffffffffffffffffffffffffff1673ffffffffffffffffffffffffffffffffffffffff168152602001908152602001600020819080600181540180825580915050600190039060005260206000200160009091909190915055610fde33828787876114ad565b9150509392505050565b6060610ff3826112ff565b600060066000848152602001908152602001600020805461101390612df4565b80601f016020809104026020016040519081016040528092919081815260200182805461103f90612df4565b801561108c5780601f106110615761010080835404028352916020019161108c565b820191906000526020600020905b81548152906001019060200180831161106f57829003601f168201915b50505050509050600061109d611c80565b905060008151036110b25781925050506110f5565b6000825111156110e75780826040516020016110cf92919061335c565b604051602081830303815290604052925050506110f5565b6110f084611c97565b925050505b919050565b6000600560008473ffffffffffffffffffffffffffffffffffffffff1673ffffffffffffffffffffffffffffffffffffffff16815260200190815260200160002060008373ffffffffffffffffffffffffffffffffffffffff1673ffffffffffffffffffffffffffffffffffffffff16815260200190815260200160002060009054906101000a900460ff16905092915050565b60098060000154905081565b6111a261140b565b600073ffffffffffffffffffffffffffffffffffffffff168173ffffffffffffffffffffffffffffffffffffffff1603611211576040517f08c379a0000000000000000000000000000000000000000000000000000000008152600401611208906133f2565b60405180910390fd5b61121a816119f2565b50565b60007f80ac58cd000000000000000000000000000000000000000000000000000000007bffffffffffffffffffffffffffffffffffffffffffffffffffffffff1916827bffffffffffffffffffffffffffffffffffffffffffffffffffffffff191614806112e857507f5b5e139f000000000000000000000000000000000000000000000000000000007bffffffffffffffffffffffffffffffffffffffffffffffffffffffff1916827bffffffffffffffffffffffffffffffffffffffffffffffffffffffff1916145b806112f857506112f782611cff565b5b9050919050565b61130881611921565b611347576040517f08c379a000000000000000000000000000000000000000000000000000000000815260040161133e906132aa565b60405180910390fd5b50565b600033905090565b816004600083815260200190815260200160002060006101000a81548173ffffffffffffffffffffffffffffffffffffffff021916908373ffffffffffffffffffffffffffffffffffffffff160217905550808273ffffffffffffffffffffffffffffffffffffffff166113c583610be5565b73ffffffffffffffffffffffffffffffffffffffff167f8c5be1e5ebec7d5bd14f71427d1e84f3dd0314c0f7b2291e5b200ac8c7c3b92560405160405180910390a45050565b61141361134a565b73ffffffffffffffffffffffffffffffffffffffff16611431610d67565b73ffffffffffffffffffffffffffffffffffffffff1614611487576040517f08c379a000000000000000000000000000000000000000000000000000000000815260040161147e9061345e565b60405180910390fd5b565b6001816000016000828254019250508190555050565b600081600001549050919050565b60006114b98686611d69565b6114c38583611f86565b83600b600087815260200190815260200160002090816114e3919061362a565b5082600c60008781526020019081526020016000209081611504919061362a565b50600d836040516115159190613115565b90815260200160405180910390208590806001815401808255809150506001900390600052602060002001600090919091909150557fe260f93729f4de5d60ff8d8ab8c7e6afc76218c4cc0f6f7e617398e20a358a2d8686868660405161157f94939291906136fc565b60405180910390a184905095945050505050565b60008061159f83610be5565b90508073ffffffffffffffffffffffffffffffffffffffff168473ffffffffffffffffffffffffffffffffffffffff1614806115e157506115e081856110fa565b5b8061161f57508373ffffffffffffffffffffffffffffffffffffffff1661160784610648565b73ffffffffffffffffffffffffffffffffffffffff16145b91505092915050565b8273ffffffffffffffffffffffffffffffffffffffff1661164882610be5565b73ffffffffffffffffffffffffffffffffffffffff161461169e576040517f08c379a0000000000000000000000000000000000000000000000000000000008152600401611695906137c1565b60405180910390fd5b600073ffffffffffffffffffffffffffffffffffffffff168273ffffffffffffffffffffffffffffffffffffffff160361170d576040517f08c379a000000000000000000000000000000000000000000000000000000000815260040161170490613853565b60405180910390fd5b61171a838383600161202a565b8273ffffffffffffffffffffffffffffffffffffffff1661173a82610be5565b73ffffffffffffffffffffffffffffffffffffffff1614611790576040517f08c379a0000000000000000000000000000000000000000000000000000000008152600401611787906137c1565b60405180910390fd5b6004600082815260200190815260200160002060006101000a81549073ffffffffffffffffffffffffffffffffffffffff02191690556001600360008573ffffffffffffffffffffffffffffffffffffffff1673ffffffffffffffffffffffffffffffffffffffff168152602001908152602001600020600082825403925050819055506001600360008473ffffffffffffffffffffffffffffffffffffffff1673ffffffffffffffffffffffffffffffffffffffff16815260200190815260200160002060008282540192505081905550816002600083815260200190815260200160002060006101000a81548173ffffffffffffffffffffffffffffffffffffffff021916908373ffffffffffffffffffffffffffffffffffffffff160217905550808273ffffffffffffffffffffffffffffffffffffffff168473ffffffffffffffffffffffffffffffffffffffff167fddf252ad1be2c89b69c2b068fc378daa952ba7f163c4a11628f55a4df523b3ef60405160405180910390a461191c8383836001612030565b505050565b60008073ffffffffffffffffffffffffffffffffffffffff16611943836119b5565b73ffffffffffffffffffffffffffffffffffffffff1614159050919050565b61196b81612036565b600060066000838152602001908152602001600020805461198b90612df4565b9050146119b2576006600082815260200190815260200160002060006119b1919061254f565b5b50565b60006002600083815260200190815260200160002060009054906101000a900473ffffffffffffffffffffffffffffffffffffffff169050919050565b6000600760009054906101000a900473ffffffffffffffffffffffffffffffffffffffff16905081600760006101000a81548173ffffffffffffffffffffffffffffffffffffffff021916908373ffffffffffffffffffffffffffffffffffffffff1602179055508173ffffffffffffffffffffffffffffffffffffffff168173ffffffffffffffffffffffffffffffffffffffff167f8be0079c531659141344cd1fd0a4f28419497f9722a3daafe3b4186f6b6457e060405160405180910390a35050565b8173ffffffffffffffffffffffffffffffffffffffff168373ffffffffffffffffffffffffffffffffffffffff1603611b26576040517f08c379a0000000000000000000000000000000000000000000000000000000008152600401611b1d906138bf565b60405180910390fd5b80600560008573ffffffffffffffffffffffffffffffffffffffff1673ffffffffffffffffffffffffffffffffffffffff16815260200190815260200160002060008473ffffffffffffffffffffffffffffffffffffffff1673ffffffffffffffffffffffffffffffffffffffff16815260200190815260200160002060006101000a81548160ff0219169083151502179055508173ffffffffffffffffffffffffffffffffffffffff168373ffffffffffffffffffffffffffffffffffffffff167f17307eab39ab6107e8899845ad3d59bd9653f200f220920489ca2b5937696c3183604051611c179190612660565b60405180910390a3505050565b611c2f848484611628565b611c3b84848484612184565b611c7a576040517f08c379a0000000000000000000000000000000000000000000000000000000008152600401611c7190613951565b60405180910390fd5b50505050565b606060405180602001604052806000815250905090565b6060611ca2826112ff565b6000611cac611c80565b90506000815111611ccc5760405180602001604052806000815250611cf7565b80611cd68461230b565b604051602001611ce792919061335c565b6040516020818303038152906040525b915050919050565b60007f01ffc9a7000000000000000000000000000000000000000000000000000000007bffffffffffffffffffffffffffffffffffffffffffffffffffffffff1916827bffffffffffffffffffffffffffffffffffffffffffffffffffffffff1916149050919050565b600073ffffffffffffffffffffffffffffffffffffffff168273ffffffffffffffffffffffffffffffffffffffff1603611dd8576040517f08c379a0000000000000000000000000000000000000000000000000000000008152600401611dcf906139bd565b60405180910390fd5b611de181611921565b15611e21576040517f08c379a0000000000000000000000000000000000000000000000000000000008152600401611e1890613a29565b60405180910390fd5b611e2f60008383600161202a565b611e3881611921565b15611e78576040517f08c379a0000000000000000000000000000000000000000000000000000000008152600401611e6f90613a29565b60405180910390fd5b6001600360008473ffffffffffffffffffffffffffffffffffffffff1673ffffffffffffffffffffffffffffffffffffffff16815260200190815260200160002060008282540192505081905550816002600083815260200190815260200160002060006101000a81548173ffffffffffffffffffffffffffffffffffffffff021916908373ffffffffffffffffffffffffffffffffffffffff160217905550808273ffffffffffffffffffffffffffffffffffffffff16600073ffffffffffffffffffffffffffffffffffffffff167fddf252ad1be2c89b69c2b068fc378daa952ba7f163c4a11628f55a4df523b3ef60405160405180910390a4611f82600083836001612030565b5050565b611f8f82611921565b611fce576040517f08c379a0000000000000000000000000000000000000000000000000000000008152600401611fc590613abb565b60405180910390fd5b80600660008481526020019081526020016000209081611fee919061362a565b507ff8e1a15aba9398e019f0b49df1a4fde98ee17ae345cb5f6b5e2c27f5033e8ce78260405161201e9190612a57565b60405180910390a15050565b50505050565b50505050565b600061204182610be5565b905061205181600084600161202a565b61205a82610be5565b90506004600083815260200190815260200160002060006101000a81549073ffffffffffffffffffffffffffffffffffffffff02191690556001600360008373ffffffffffffffffffffffffffffffffffffffff1673ffffffffffffffffffffffffffffffffffffffff168152602001908152602001600020600082825403925050819055506002600083815260200190815260200160002060006101000a81549073ffffffffffffffffffffffffffffffffffffffff021916905581600073ffffffffffffffffffffffffffffffffffffffff168273ffffffffffffffffffffffffffffffffffffffff167fddf252ad1be2c89b69c2b068fc378daa952ba7f163c4a11628f55a4df523b3ef60405160405180910390a4612180816000846001612030565b5050565b60006121a58473ffffffffffffffffffffffffffffffffffffffff166123d9565b156122fe578373ffffffffffffffffffffffffffffffffffffffff1663150b7a026121ce61134a565b8786866040518563ffffffff1660e01b81526004016121f09493929190613b30565b6020604051808303816000875af192505050801561222c57506040513d601f19601f820116820180604052508101906122299190613b91565b60015b6122ae573d806000811461225c576040519150601f19603f3d011682016040523d82523d6000602084013e612261565b606091505b5060008151036122a6576040517f08c379a000000000000000000000000000000000000000000000000000000000815260040161229d90613951565b60405180910390fd5b805181602001fd5b63150b7a0260e01b7bffffffffffffffffffffffffffffffffffffffffffffffffffffffff1916817bffffffffffffffffffffffffffffffffffffffffffffffffffffffff191614915050612303565b600190505b949350505050565b60606000600161231a846123fc565b01905060008167ffffffffffffffff81111561233957612338612862565b5b6040519080825280601f01601f19166020018201604052801561236b5781602001600182028036833780820191505090505b509050600082602001820190505b6001156123ce578080600190039150507f3031323334353637383961626364656600000000000000000000000000000000600a86061a8153600a85816123c2576123c1613bbe565b5b04945060008503612379575b819350505050919050565b6000808273ffffffffffffffffffffffffffffffffffffffff163b119050919050565b600080600090507a184f03e93ff9f4daa797ed6e38ed64bf6a1f010000000000000000831061245a577a184f03e93ff9f4daa797ed6e38ed64bf6a1f01000000000000000083816124505761244f613bbe565b5b0492506040810190505b6d04ee2d6d415b85acef81000000008310612497576d04ee2d6d415b85acef8100000000838161248d5761248c613bbe565b5b0492506020810190505b662386f26fc1000083106124c657662386f26fc1000083816124bc576124bb613bbe565b5b0492506010810190505b6305f5e10083106124ef576305f5e10083816124e5576124e4613bbe565b5b0492506008810190505b612710831061251457612710838161250a57612509613bbe565b5b0492506004810190505b60648310612537576064838161252d5761252c613bbe565b5b0492506002810190505b600a8310612546576001810190505b80915050919050565b50805461255b90612df4565b6000825580601f1061256d575061258c565b601f01602090049060005260206000209081019061258b919061258f565b5b50565b5b808211156125a8576000816000905550600101612590565b5090565b6000604051905090565b600080fd5b600080fd5b60007fffffffff0000000000000000000000000000000000000000000000000000000082169050919050565b6125f5816125c0565b811461260057600080fd5b50565b600081359050612612816125ec565b92915050565b60006020828403121561262e5761262d6125b6565b5b600061263c84828501612603565b91505092915050565b60008115159050919050565b61265a81612645565b82525050565b60006020820190506126756000830184612651565b92915050565b600081519050919050565b600082825260208201905092915050565b60005b838110156126b557808201518184015260208101905061269a565b60008484015250505050565b6000601f19601f8301169050919050565b60006126dd8261267b565b6126e78185612686565b93506126f7818560208601612697565b612700816126c1565b840191505092915050565b6000602082019050818103600083015261272581846126d2565b905092915050565b6000819050919050565b6127408161272d565b811461274b57600080fd5b50565b60008135905061275d81612737565b92915050565b600060208284031215612779576127786125b6565b5b60006127878482850161274e565b91505092915050565b600073ffffffffffffffffffffffffffffffffffffffff82169050919050565b60006127bb82612790565b9050919050565b6127cb816127b0565b82525050565b60006020820190506127e660008301846127c2565b92915050565b6127f5816127b0565b811461280057600080fd5b50565b600081359050612812816127ec565b92915050565b6000806040838503121561282f5761282e6125b6565b5b600061283d85828601612803565b925050602061284e8582860161274e565b9150509250929050565b600080fd5b600080fd5b7f4e487b7100000000000000000000000000000000000000000000000000000000600052604160045260246000fd5b61289a826126c1565b810181811067ffffffffffffffff821117156128b9576128b8612862565b5b80604052505050565b60006128cc6125ac565b90506128d88282612891565b919050565b600067ffffffffffffffff8211156128f8576128f7612862565b5b612901826126c1565b9050602081019050919050565b82818337600083830152505050565b600061293061292b846128dd565b6128c2565b90508281526020810184848401111561294c5761294b61285d565b5b61295784828561290e565b509392505050565b600082601f83011261297457612973612858565b5b813561298484826020860161291d565b91505092915050565b600080600080608085870312156129a7576129a66125b6565b5b60006129b587828801612803565b945050602085013567ffffffffffffffff8111156129d6576129d56125bb565b5b6129e28782880161295f565b935050604085013567ffffffffffffffff811115612a0357612a026125bb565b5b612a0f8782880161295f565b925050606085013567ffffffffffffffff811115612a3057612a2f6125bb565b5b612a3c8782880161295f565b91505092959194509250565b612a518161272d565b82525050565b6000602082019050612a6c6000830184612a48565b92915050565b600080600060608486031215612a8b57612a8a6125b6565b5b6000612a9986828701612803565b9350506020612aaa86828701612803565b9250506040612abb8682870161274e565b9150509250925092565b60008060408385031215612adc57612adb6125b6565b5b600083013567ffffffffffffffff811115612afa57612af96125bb565b5b612b068582860161295f565b9250506020612b178582860161274e565b9150509250929050565b600060208284031215612b3757612b366125b6565b5b6000612b4584828501612803565b91505092915050565b612b5781612645565b8114612b6257600080fd5b50565b600081359050612b7481612b4e565b92915050565b60008060408385031215612b9157612b906125b6565b5b6000612b9f85828601612803565b9250506020612bb085828601612b65565b9150509250929050565b600067ffffffffffffffff821115612bd557612bd4612862565b5b612bde826126c1565b9050602081019050919050565b6000612bfe612bf984612bba565b6128c2565b905082815260208101848484011115612c1a57612c1961285d565b5b612c2584828561290e565b509392505050565b600082601f830112612c4257612c41612858565b5b8135612c52848260208601612beb565b91505092915050565b60008060008060808587031215612c7557612c746125b6565b5b6000612c8387828801612803565b9450506020612c9487828801612803565b9350506040612ca58782880161274e565b925050606085013567ffffffffffffffff811115612cc657612cc56125bb565b5b612cd287828801612c2d565b91505092959194509250565b600080600060608486031215612cf757612cf66125b6565b5b600084013567ffffffffffffffff811115612d1557612d146125bb565b5b612d218682870161295f565b935050602084013567ffffffffffffffff811115612d4257612d416125bb565b5b612d4e8682870161295f565b925050604084013567ffffffffffffffff811115612d6f57612d6e6125bb565b5b612d7b8682870161295f565b9150509250925092565b60008060408385031215612d9c57612d9b6125b6565b5b6000612daa85828601612803565b9250506020612dbb85828601612803565b9150509250929050565b7f4e487b7100000000000000000000000000000000000000000000000000000000600052602260045260246000fd5b60006002820490506001821680612e0c57607f821691505b602082108103612e1f57612e1e612dc5565b5b50919050565b7f4552433732313a20617070726f76616c20746f2063757272656e74206f776e6560008201527f7200000000000000000000000000000000000000000000000000000000000000602082015250565b6000612e81602183612686565b9150612e8c82612e25565b604082019050919050565b60006020820190508181036000830152612eb081612e74565b9050919050565b7f4552433732313a20617070726f76652063616c6c6572206973206e6f7420746f60008201527f6b656e206f776e6572206f7220617070726f76656420666f7220616c6c000000602082015250565b6000612f13603d83612686565b9150612f1e82612eb7565b604082019050919050565b60006020820190508181036000830152612f4281612f06565b9050919050565b7f4552433732313a2063616c6c6572206973206e6f7420746f6b656e206f776e6560008201527f72206f7220617070726f76656400000000000000000000000000000000000000602082015250565b6000612fa5602d83612686565b9150612fb082612f49565b604082019050919050565b60006020820190508181036000830152612fd481612f98565b9050919050565b7f546f6b656e20646f6573206e6f74206578697374000000000000000000000000600082015250565b6000613011601483612686565b915061301c82612fdb565b602082019050919050565b6000602082019050818103600083015261304081613004565b9050919050565b7f596f7520617265206e6f7420746865206f776e6572206f66207468697320746f60008201527f6b656e0000000000000000000000000000000000000000000000000000000000602082015250565b60006130a3602383612686565b91506130ae82613047565b604082019050919050565b600060208201905081810360008301526130d281613096565b9050919050565b600081905092915050565b60006130ef8261267b565b6130f981856130d9565b9350613109818560208601612697565b80840191505092915050565b600061312182846130e4565b915081905092915050565b7f4e487b7100000000000000000000000000000000000000000000000000000000600052603260045260246000fd5b7f4e487b7100000000000000000000000000000000000000000000000000000000600052601160045260246000fd5b60006131958261272d565b91506131a08361272d565b92508282039050818111156131b8576131b761315b565b5b92915050565b7f4e487b7100000000000000000000000000000000000000000000000000000000600052603160045260246000fd5b60006131f88261272d565b91507fffffffffffffffffffffffffffffffffffffffffffffffffffffffffffffffff820361322a5761322961315b565b5b600182019050919050565b600060408201905061324a60008301856127c2565b6132576020830184612a48565b9392505050565b7f4552433732313a20696e76616c696420746f6b656e2049440000000000000000600082015250565b6000613294601883612686565b915061329f8261325e565b602082019050919050565b600060208201905081810360008301526132c381613287565b9050919050565b7f4552433732313a2061646472657373207a65726f206973206e6f74206120766160008201527f6c6964206f776e65720000000000000000000000000000000000000000000000602082015250565b6000613326602983612686565b9150613331826132ca565b604082019050919050565b6000602082019050818103600083015261335581613319565b9050919050565b600061336882856130e4565b915061337482846130e4565b91508190509392505050565b7f4f776e61626c653a206e6577206f776e657220697320746865207a65726f206160008201527f6464726573730000000000000000000000000000000000000000000000000000602082015250565b60006133dc602683612686565b91506133e782613380565b604082019050919050565b6000602082019050818103600083015261340b816133cf565b9050919050565b7f4f776e61626c653a2063616c6c6572206973206e6f7420746865206f776e6572600082015250565b6000613448602083612686565b915061345382613412565b602082019050919050565b600060208201905081810360008301526134778161343b565b9050919050565b60008190508160005260206000209050919050565b60006020601f8301049050919050565b600082821b905092915050565b6000600883026134e07fffffffffffffffffffffffffffffffffffffffffffffffffffffffffffffffff826134a3565b6134ea86836134a3565b95508019841693508086168417925050509392505050565b6000819050919050565b600061352761352261351d8461272d565b613502565b61272d565b9050919050565b6000819050919050565b6135418361350c565b61355561354d8261352e565b8484546134b0565b825550505050565b600090565b61356a61355d565b613575818484613538565b505050565b5b818110156135995761358e600082613562565b60018101905061357b565b5050565b601f8211156135de576135af8161347e565b6135b884613493565b810160208510156135c7578190505b6135db6135d385613493565b83018261357a565b50505b505050565b600082821c905092915050565b6000613601600019846008026135e3565b1980831691505092915050565b600061361a83836135f0565b9150826002028217905092915050565b6136338261267b565b67ffffffffffffffff81111561364c5761364b612862565b5b6136568254612df4565b61366182828561359d565b600060209050601f8311600181146136945760008415613682578287015190505b61368c858261360e565b8655506136f4565b601f1984166136a28661347e565b60005b828110156136ca578489015182556001820191506020850194506020810190506136a5565b868310156136e757848901516136e3601f8916826135f0565b8355505b6001600288020188555050505b505050505050565b600060808201905061371160008301876127c2565b61371e6020830186612a48565b818103604083015261373081856126d2565b9050818103606083015261374481846126d2565b905095945050505050565b7f4552433732313a207472616e736665722066726f6d20696e636f72726563742060008201527f6f776e6572000000000000000000000000000000000000000000000000000000602082015250565b60006137ab602583612686565b91506137b68261374f565b604082019050919050565b600060208201905081810360008301526137da8161379e565b9050919050565b7f4552433732313a207472616e7366657220746f20746865207a65726f2061646460008201527f7265737300000000000000000000000000000000000000000000000000000000602082015250565b600061383d602483612686565b9150613848826137e1565b604082019050919050565b6000602082019050818103600083015261386c81613830565b9050919050565b7f4552433732313a20617070726f766520746f2063616c6c657200000000000000600082015250565b60006138a9601983612686565b91506138b482613873565b602082019050919050565b600060208201905081810360008301526138d88161389c565b9050919050565b7f4552433732313a207472616e7366657220746f206e6f6e20455243373231526560008201527f63656976657220696d706c656d656e7465720000000000000000000000000000602082015250565b600061393b603283612686565b9150613946826138df565b604082019050919050565b6000602082019050818103600083015261396a8161392e565b9050919050565b7f4552433732313a206d696e7420746f20746865207a65726f2061646472657373600082015250565b60006139a7602083612686565b91506139b282613971565b602082019050919050565b600060208201905081810360008301526139d68161399a565b9050919050565b7f4552433732313a20746f6b656e20616c7265616479206d696e74656400000000600082015250565b6000613a13601c83612686565b9150613a1e826139dd565b602082019050919050565b60006020820190508181036000830152613a4281613a06565b9050919050565b7f45524337323155524953746f726167653a2055524920736574206f66206e6f6e60008201527f6578697374656e7420746f6b656e000000000000000000000000000000000000602082015250565b6000613aa5602e83612686565b9150613ab082613a49565b604082019050919050565b60006020820190508181036000830152613ad481613a98565b9050919050565b600081519050919050565b600082825260208201905092915050565b6000613b0282613adb565b613b0c8185613ae6565b9350613b1c818560208601612697565b613b25816126c1565b840191505092915050565b6000608082019050613b4560008301876127c2565b613b5260208301866127c2565b613b5f6040830185612a48565b8181036060830152613b718184613af7565b905095945050505050565b600081519050613b8b816125ec565b92915050565b600060208284031215613ba757613ba66125b6565b5b6000613bb584828501613b7c565b91505092915050565b7f4e487b7100000000000000000000000000000000000000000000000000000000600052601260045260246000fdfea26469706673582212205377bca620cc0781ada9afc1c8d08775305644e1ba59af6326c8842b3d51391b64736f6c63430008120033",
  "linkReferences": {},
  "deployedLinkReferences": {}
}